:060000000A128A11122809
:10000800FF00030883120313AE000408AF000A08B8
:10001800B0007E08B1000A128A11382F0A128A111C
:100028009B2F003400340034003400340034003492
:100038000034003400340034003400340034003418
:100048000034003400340034003400340034003408
:1000580000340034003400340034003400340034F8
:1000680000340034003400340034003400340034E8
:1000780000340034003400340034003400340034D8
:1000880000340034003400340034003400340034C8
:1000980000340034003400340034003400341434A4
:1000A800003436340034593400347B3400349E3400
:1000B8000034C0340034E3340034053401342834C7
:1000C80001344A3401346D3401348F340134B2348C
:1000D8000134D4340134F7340134193402343B3454
:1000E80002345E34023480340234A3340234C5341A
:1000F8000234E83402340A3403342D3403344F34E0
:1001080003347234033494340334B7340334D934A5
:100118000334FC3403341E3404344134043463346B
:10012800043486340434A8340434CB340434ED3431
:1001380004341034053432340534553405347734F6
:1001480005349A340534BC340534DF3405340134BD
:1001580006342434063446340634693406348B3481
:100168000634AE340634D0340634F3340634153449
:100178000734383407345A3407347D3407349F340D
:100188000734C2340734E4340734073408342934D4
:1001980008344B3408346E34083490340834B3349B
:1001A8000834D5340834F83408341A3409343D3462
:1001B80009345F34093482340934A4340934C73427
:1001C8000934E93409340C340A342E340A345134ED
:1001D8000A3473340A3496340A34B8340A34DB34B3
:1001E8000A34FD340A3420340B3442340B34653479
:1001F8000B3487340B34AA340B34CC340B34EF343F
:100208000B3411340C3434340C3456340C34793403
:100218000C349B340C34BE340C34E0340C340334CA
:100228000D3425340D3448340D346A340D348D348E
:100238000D34AF340D34D2340D34F4340D34173456
:100248000E3439340E345B340E347E340E34A0341C
:100258000E34C3340E34E5340E3408340F342A34E3
:100268000F344D340F346F340F3492340F34B434A8
:100278000F34D7340F34F9340F341C3410343E346F
:1002880010346134103483341034A6341034C83434
:100298001034EB3410340D341134303411345234FA
:1002A80011347534113497341134BA341134DC34C0
:1002B8001134FF3411342134123444341234663486
:1002C800123489341234AB341234CE341234F0344C
:1002D80012341334133435341334583413347A3411
:1002E80013349D341334BF341334E23413340434D8
:1002F800143427341434493414346B3414348E349D
:100308001434B0341434D3341434F5341434183465
:1003180015343A3415345D3415347F341534A23429
:100328001534C4341534E7341534093416342C34F0
:1003380016344E3416347134163493341634B634B5
:100348001634D8341634FB3416341D34173440347C
:1003580017346234173485341734A7341734CA3441
:100368001734EC3417340F34183431341834543407
:1003780018347634183499341834BB341834DE34CD
:100388001834003419342334193445341934683492
:1003980019348A341934AD341934CF341934F23459
:1003A800193414341A3437341A3459341A347B341F
:1003B8001A349E341A34C0341A34E3341A340534E7
:1003C8001B3428341B344A341B346D341B348F34AB
:1003D8001B34B2341B34D4341B34F7341B34193473
:1003E8001C343C341C345E341C3481341C34A33437
:1003F8001C34C6341C34E8341C340B341D342D34FE
:100408001D3450341D3472341D3495341D34B734C2
:100418001D34DA341D34FC341D341F341E34413489
:100428001E34003400340034003400340034003406
:100438000034003400340034003400340034003414
:100448000034003400340034003400340034003404
:1004580000340034003400340034003400340034F4
:1004680000340034003400340034003400340034E4
:1004780000340034003400340034003400340034D4
:1004880000340034003400340034003400340034C4
:1004980000340034003400340034003400341434A0
:1004A800003436340034593400347B3400349E34FC
:1004B8000034C0340034E3340034053401342834C3
:1004C80001344A3401346D3401348F340134B23488
:1004D8000134D4340134F7340134193402343B3450
:1004E80002345E34023480340234A3340234C53416
:1004F8000234E83402340A3403342D3403344F34DC
:1005080003347234033494340334B7340334D934A1
:100518000334FC3403341E34043441340434633467
:10052800043486340434A8340434CB340434ED342D
:1005380004341034053432340534553405347734F2
:1005480005349A340534BC340534DF3405340134B9
:1005580006342434063446340634693406348B347D
:100568000634AE340634D0340634F3340634153445
:100578000734383407345A3407347D3407349F3409
:100588000734C2340734E4340734073408342934D0
:1005980008344B3408346E34083490340834B33497
:1005A8000834D5340834F83408341A3409343D345E
:1005B80009345F34093482340934A4340934C73423
:1005C8000934E93409340C340A342E340A345134E9
:1005D8000A3473340A3496340A34B8340A34DB34AF
:1005E8000A34FD340A3420340B3442340B34653475
:1005F8000B3487340B34AA340B34CC340B34EF343B
:100608000B3411340C3434340C3456340C347934FF
:100618000C349B340C34BE340C34E0340C340334C6
:100628000D3425340D3448340D346A340D348D348A
:100638000D34AF340D34D2340D34F4340D34173452
:100648000E3439340E345B340E347E340E34A03418
:100658000E34C3340E34E5340E3408340F342A34DF
:100668000F344D340F346F340F3492340F34B434A4
:100678000F34D7340F34F9340F341C3410343E346B
:1006880010346134103483341034A6341034C83430
:100698001034EB3410340D341134303411345234F6
:1006A80011347534113497341134BA341134DC34BC
:1006B8001134FF3411342134123444341234663482
:1006C800123489341234AB341234CE341234F03448
:1006D80012341334133435341334583413347A340D
:1006E80013349D341334BF341334E23413340434D4
:1006F800143427341434493414346B3414348E3499
:100708001434B0341434D3341434F5341434183461
:1007180015343A3415345D3415347F341534A23425
:100728001534C4341534E7341534093416342C34EC
:1007380016344E3416347134163493341634B634B1
:100748001634D8341634FB3416341D341734403478
:1007580017346234173485341734A7341734CA343D
:100768001734EC3417340F34183431341834543403
:1007780018347634183499341834BB341834DE34C9
:10078800183400341934233419344534193468348E
:1007980019348A341934AD341934CF341934F23455
:1007A800193414341A3437341A3459341A347B341B
:1007B8001A349E341A34C0341A34E3341A340534E3
:1007C8001B3428341B344A341B346D341B348F34A7
:1007D8001B34B2341B34D4341B34F7341B3419346F
:1007E8001C343C341C345E341C3481341C34A33433
:1007F8001C34C6341C34E8341C340B341D342D34FA
:100808001D3450341D3472341D3495341D34B734BE
:100818001D34DA341D34FC341D341F341E34413485
:100828001E34003400340034003400340034003402
:100838000034003400340034003400340034003410
:100848000034003400340034003400340034003400
:1008580000340034003400340034003400340034F0
:1008680000340034003400340034003400340034E0
:1008780000340034003400340034003400340034D0
:1008880000340034003400340034003400340034C0
:10089800003400340034003400340034003414349C
:1008A800003436340034593400347B3400349E34F8
:1008B8000034C0340034E3340034053401342834BF
:1008C80001344A3401346D3401348F340134B23484
:1008D8000134D4340134F7340134193402343B344C
:1008E80002345E34023480340234A3340234C53412
:1008F8000234E83402340A3403342D3403344F34D8
:1009080003347234033494340334B7340334D9349D
:100918000334FC3403341E34043441340434633463
:10092800043486340434A8340434CB340434ED3429
:1009380004341034053432340534553405347734EE
:1009480005349A340534BC340534DF3405340134B5
:1009580006342434063446340634693406348B3479
:100968000634AE340634D0340634F3340634153441
:100978000734383407345A3407347D3407349F3405
:100988000734C2340734E4340734073408342934CC
:1009980008344B3408346E34083490340834B33493
:1009A8000834D5340834F83408341A3409343D345A
:1009B80009345F34093482340934A4340934C7341F
:1009C8000934E93409340C340A342E340A345134E5
:1009D8000A3473340A3496340A34B8340A34DB34AB
:1009E8000A34FD340A3420340B3442340B34653471
:1009F8000B3487340B34AA340B34CC340B34EF3437
:100A08000B3411340C3434340C3456340C347934FB
:100A18000C349B340C34BE340C34E0340C340334C2
:100A28000D3425340D3448340D346A340D348D3486
:100A38000D34AF340D34D2340D34F4340D3417344E
:100A48000E3439340E345B340E347E340E34A03414
:100A58000E34C3340E34E5340E3408340F342A34DB
:100A68000F344D340F346F340F3492340F34B434A0
:100A78000F34D7340F34F9340F341C3410343E3467
:100A880010346134103483341034A6341034C8342C
:100A98001034EB3410340D341134303411345234F2
:100AA80011347534113497341134BA341134DC34B8
:100AB8001134FF341134213412344434123466347E
:100AC800123489341234AB341234CE341234F03444
:100AD80012341334133435341334583413347A3409
:100AE80013349D341334BF341334E23413340434D0
:100AF800143427341434493414346B3414348E3495
:100B08001434B0341434D3341434F534143418345D
:100B180015343A3415345D3415347F341534A23421
:100B28001534C4341534E7341534093416342C34E8
:100B380016344E3416347134163493341634B634AD
:100B48001634D8341634FB3416341D341734403474
:100B580017346234173485341734A7341734CA3439
:100B68001734EC3417340F341834313418345434FF
:100B780018347634183499341834BB341834DE34C5
:100B8800183400341934233419344534193468348A
:100B980019348A341934AD341934CF341934F23451
:100BA800193414341A3437341A3459341A347B3417
:100BB8001A349E341A34C0341A34E3341A340534DF
:100BC8001B3428341B344A341B346D341B348F34A3
:100BD8001B34B2341B34D4341B34F7341B3419346B
:100BE8001C343C341C345E341C3481341C34A3342F
:100BF8001C34C6341C34E8341C340B341D342D34F6
:100C08001D3450341D3472341D3495341D34B734BA
:100C18001D34DA341D34FC341D341F341E34413481
:100C28001E34A6018701F43083168700FF30850043
:100C380086008312071087100A128A1190270A1259
:100C48008A11070E0F39013A031D2E2E1530A40004
:100C580002303A2E070E0F39023A031D372E15308F
:100C6800A40000303A2E1530A4000430A5009F14CB
:100C78009F183C2EF701F501F6010530920025304A
:100C88009000B830840006300A128A1500270A122C
:100C98008A11831692000A30831295000C3097004F
:100CA80010118C1C552E8C108C1C582E8C108C10EE
:100CB80083168C14831210108E018F010C100C13E4
:100CC80083160C1796148711071183120B178B17AD
:100CD800051E6C2E10100F08A70000300C180130EC
:100CE800A6008E018F010C101014F601F60A0714E5
:100CF800A608031DB52E27080319B52E2708F000EE
:100D0800F1010310700DF200710DF3002408720751
:100D1800840025080318013E7307F4000A128A1597
:100D28000027A000840A0319F40A74080A128A1515
:100D380000270A128A11A1000F08A3000E08A200BA
:100D480023082102031DAA2E220820020318A02E20
:100D58008B137603031DB42E83160715831287148D
:100D68008B17051E6C2EB52E963496349634963411
:100D780084346F34603456344E34473442343E340D
:100D88003B3438343534333431342F342E342C3426
:100D98002B342A342934283427342734263425346C
:100DA8002534243423342334223422342234213485
:100DB80021342034203420341F341F341F341F348E
:100DC8001E341E341E341E341D341D341D341D348F
:100DD8001D341D341C341C341C341C341C341C3489
:100DE8001B341B341B341B341B341B341B341B3483
:100DF8001B341A341A341A341A341A341A341A347A
:100E08001A341A341A341A3419341934193419346E
:100E18001934193419341934193419341934193462
:100E28001934193419341934183418341834183456
:100E3800183418341834183418341834183418344A
:100E4800183418341834183418341834183418343A
:100E5800183418341834183417341734173417342E
:100E680017341734173417340B1C5C2F861C5A2F71
:100E7800760803195A2F831607158312871407104B
:100E88000830AD00C930AC00AC0B482FAD0B482F73
:100E98004D2F8312031387100630AC00AC0B522F72
:100EA8006400F601F50183160313071183120B1072
:100EB8000C1F682F03101E0CF7005D307702831695
:100EC8000318071583120C138C1C852FF50A9F1421
:100ED8007708B83E840006300318013E0A128A15C6
:100EE80000270A128A118316920004307702031829
:100EF800832F06307502031C832F0715F501831213
:100F08008C103108FE0030088A002F0884002E0853
:100F18008300FF0E7F0E0900831603178801880AD5
:100F2800890103139F01813083129F000800F50196
:0C0F3800F601F70183010A128A11152E40
:101E0000FE00FE1F082F83137E18831700080800AA
:061E10008A0004088200B4
:02400E00F21CA2
:00000001FF
